{
  "contractName": "HuaHuaToken",
  "abi": [
    {
      "inputs": [],
      "stateMutability": "nonpayable",
      "type": "constructor"
    },
    {
      "anonymous": false,
      "inputs": [
        {
          "indexed": true,
          "internalType": "address",
          "name": "owner",
          "type": "address"
        },
        {
          "indexed": true,
          "internalType": "address",
          "name": "spender",
          "type": "address"
        },
        {
          "indexed": false,
          "internalType": "uint256",
          "name": "value",
          "type": "uint256"
        }
      ],
      "name": "Approval",
      "type": "event"
    },
    {
      "anonymous": false,
      "inputs": [
        {
          "indexed": true,
          "internalType": "address",
          "name": "previousOwner",
          "type": "address"
        },
        {
          "indexed": true,
          "internalType": "address",
          "name": "newOwner",
          "type": "address"
        }
      ],
      "name": "OwnershipTransferred",
      "type": "event"
    },
    {
      "anonymous": false,
      "inputs": [
        {
          "indexed": true,
          "internalType": "address",
          "name": "from",
          "type": "address"
        },
        {
          "indexed": true,
          "internalType": "address",
          "name": "to",
          "type": "address"
        },
        {
          "indexed": false,
          "internalType": "uint256",
          "name": "value",
          "type": "uint256"
        }
      ],
      "name": "Transfer",
      "type": "event"
    },
    {
      "inputs": [],
      "name": "TOKENS_PER_HOLDER",
      "outputs": [
        {
          "internalType": "uint256",
          "name": "",
          "type": "uint256"
        }
      ],
      "stateMutability": "view",
      "type": "function"
    },
    {
      "inputs": [
        {
          "internalType": "address",
          "name": "owner",
          "type": "address"
        },
        {
          "internalType": "address",
          "name": "spender",
          "type": "address"
        }
      ],
      "name": "allowance",
      "outputs": [
        {
          "internalType": "uint256",
          "name": "",
          "type": "uint256"
        }
      ],
      "stateMutability": "view",
      "type": "function"
    },
    {
      "inputs": [
        {
          "internalType": "address",
          "name": "spender",
          "type": "address"
        },
        {
          "internalType": "uint256",
          "name": "amount",
          "type": "uint256"
        }
      ],
      "name": "approve",
      "outputs": [
        {
          "internalType": "bool",
          "name": "",
          "type": "bool"
        }
      ],
      "stateMutability": "nonpayable",
      "type": "function"
    },
    {
      "inputs": [
        {
          "internalType": "address",
          "name": "account",
          "type": "address"
        }
      ],
      "name": "balanceOf",
      "outputs": [
        {
          "internalType": "uint256",
          "name": "",
          "type": "uint256"
        }
      ],
      "stateMutability": "view",
      "type": "function"
    },
    {
      "inputs": [],
      "name": "decimals",
      "outputs": [
        {
          "internalType": "uint8",
          "name": "",
          "type": "uint8"
        }
      ],
      "stateMutability": "view",
      "type": "function"
    },
    {
      "inputs": [
        {
          "internalType": "address",
          "name": "spender",
          "type": "address"
        },
        {
          "internalType": "uint256",
          "name": "subtractedValue",
          "type": "uint256"
        }
      ],
      "name": "decreaseAllowance",
      "outputs": [
        {
          "internalType": "bool",
          "name": "",
          "type": "bool"
        }
      ],
      "stateMutability": "nonpayable",
      "type": "function"
    },
    {
      "inputs": [
        {
          "internalType": "uint256",
          "name": "",
          "type": "uint256"
        }
      ],
      "name": "holders",
      "outputs": [
        {
          "internalType": "address",
          "name": "",
          "type": "address"
        }
      ],
      "stateMutability": "view",
      "type": "function"
    },
    {
      "inputs": [
        {
          "internalType": "address",
          "name": "spender",
          "type": "address"
        },
        {
          "internalType": "uint256",
          "name": "addedValue",
          "type": "uint256"
        }
      ],
      "name": "increaseAllowance",
      "outputs": [
        {
          "internalType": "bool",
          "name": "",
          "type": "bool"
        }
      ],
      "stateMutability": "nonpayable",
      "type": "function"
    },
    {
      "inputs": [],
      "name": "name",
      "outputs": [
        {
          "internalType": "string",
          "name": "",
          "type": "string"
        }
      ],
      "stateMutability": "view",
      "type": "function"
    },
    {
      "inputs": [],
      "name": "owner",
      "outputs": [
        {
          "internalType": "address",
          "name": "",
          "type": "address"
        }
      ],
      "stateMutability": "view",
      "type": "function"
    },
    {
      "inputs": [],
      "name": "renounceOwnership",
      "outputs": [],
      "stateMutability": "nonpayable",
      "type": "function"
    },
    {
      "inputs": [],
      "name": "symbol",
      "outputs": [
        {
          "internalType": "string",
          "name": "",
          "type": "string"
        }
      ],
      "stateMutability": "view",
      "type": "function"
    },
    {
      "inputs": [],
      "name": "totalSupply",
      "outputs": [
        {
          "internalType": "uint256",
          "name": "",
          "type": "uint256"
        }
      ],
      "stateMutability": "view",
      "type": "function"
    },
    {
      "inputs": [
        {
          "internalType": "address",
          "name": "recipient",
          "type": "address"
        },
        {
          "internalType": "uint256",
          "name": "amount",
          "type": "uint256"
        }
      ],
      "name": "transfer",
      "outputs": [
        {
          "internalType": "bool",
          "name": "",
          "type": "bool"
        }
      ],
      "stateMutability": "nonpayable",
      "type": "function"
    },
    {
      "inputs": [
        {
          "internalType": "address",
          "name": "sender",
          "type": "address"
        },
        {
          "internalType": "address",
          "name": "recipient",
          "type": "address"
        },
        {
          "internalType": "uint256",
          "name": "amount",
          "type": "uint256"
        }
      ],
      "name": "transferFrom",
      "outputs": [
        {
          "internalType": "bool",
          "name": "",
          "type": "bool"
        }
      ],
      "stateMutability": "nonpayable",
      "type": "function"
    },
    {
      "inputs": [
        {
          "internalType": "address",
          "name": "newOwner",
          "type": "address"
        }
      ],
      "name": "transferOwnership",
      "outputs": [],
      "stateMutability": "nonpayable",
      "type": "function"
    },
    {
      "inputs": [],
      "name": "getHoldersLength",
      "outputs": [
        {
          "internalType": "uint256",
          "name": "",
          "type": "uint256"
        }
      ],
      "stateMutability": "view",
      "type": "function"
    }
  ],
  "bytecode": "0x6b033b2e3c9fd0803ce80000006006556101e060405273e3350e9c9398cafdc7d87d2a864e19388b0cc8cf608090815273e7c73ceaa83e60d75a09aa10eff2f1248b0dddfa60a052738f36c5cce9d4a7de7e528041c6519d6ea784169460c05273e392e892727cc9864433918ffc499913d137363c60e0527361a374d65c1623a9c482d8b1c09144ff24c6418e61010052731ad41cc71ff5d15b51e16283514875edce3994fb610120527320b7a7a3bf89e04235ce9b5f9b9bc50101165f4b610140527370c443a9f57b5c30c55805c92a62c37738e2533961016052735ab28b076929ec513ad168068dc3ac58de7d995f61018052738fbf3f7b39ae1a5893b2ce5667b3bb820ad6823d6101a05273ad387a2a8fec2d82d1bf07891dcfa468079f5af76101c0526200013690600790600b62000431565b503480156200014457600080fd5b506040518060400160405280600d81526020016c243ab090243ab0902a37b5b2b760991b8152506040518060400160405280600381526020016212121560ea1b81525081600390805190602001906200019f9291906200049b565b508051620001b59060049060208401906200049b565b505050620001d2620001cc6200026860201b60201c565b6200026c565b620001dd33620002be565b620001f1336006546200034460201b60201c565b683635c9adc5dea0000060005b60075481101562000260576200024b600782815481106200022f57634e487b7160e01b600052603260045260246000fd5b6000918252602090912001546001600160a01b03168362000344565b80620002578162000642565b915050620001fe565b505062000676565b3390565b600580546001600160a01b038381166001600160a01b0319831681179093556040519116919082907f8be0079c531659141344cd1fd0a4f28419497f9722a3daafe3b4186f6b6457e090600090a35050565b620002c862000268565b6001600160a01b0316620002db6200041d565b6001600160a01b0316146200030d5760405162461bcd60e51b8152600401620003049062000575565b60405180910390fd5b6001600160a01b038116620003365760405162461bcd60e51b815260040162000304906200052f565b62000341816200026c565b50565b6001600160a01b0382166200036d5760405162461bcd60e51b81526004016200030490620005aa565b6200037b600083836200042c565b80600260008282546200038f9190620005ea565b90915550506001600160a01b03821660009081526020819052604081208054839290620003be908490620005ea565b90915550506040516001600160a01b038316906000907fddf252ad1be2c89b69c2b068fc378daa952ba7f163c4a11628f55a4df523b3ef9062000403908590620005e1565b60405180910390a362000419600083836200042c565b5050565b6005546001600160a01b031690565b505050565b82805482825590600052602060002090810192821562000489579160200282015b828111156200048957825182546001600160a01b0319166001600160a01b0390911617825560209092019160019091019062000452565b506200049792915062000518565b5090565b828054620004a99062000605565b90600052602060002090601f016020900481019282620004cd576000855562000489565b82601f10620004e857805160ff191683800117855562000489565b8280016001018555821562000489579182015b8281111562000489578251825591602001919060010190620004fb565b5b8082111562000497576000815560010162000519565b60208082526026908201527f4f776e61626c653a206e6577206f776e657220697320746865207a65726f206160408201526564647265737360d01b606082015260800190565b6020808252818101527f4f776e61626c653a2063616c6c6572206973206e6f7420746865206f776e6572604082015260600190565b6020808252601f908201527f45524332303a206d696e7420746f20746865207a65726f206164647265737300604082015260600190565b90815260200190565b6000821982111562000600576200060062000660565b500190565b6002810460018216806200061a57607f821691505b602082108114156200063c57634e487b7160e01b600052602260045260246000fd5b50919050565b600060001982141562000659576200065962000660565b5060010190565b634e487b7160e01b600052601160045260246000fd5b610c6e80620006866000396000f3fe608060405234801561001057600080fd5b506004361061010b5760003560e01c806370a08231116100a2578063a457c2d711610071578063a457c2d7146101f3578063a9059cbb14610206578063db04aef414610219578063dd62ed3e14610221578063f2fde38b146102345761010b565b806370a08231146101c6578063715018a6146101d95780638da5cb5b146101e357806395d89b41146101eb5761010b565b80632a11ced0116100de5780632a11ced014610176578063313ce5671461019657806339509351146101ab57806340b59f2e146101be5761010b565b806306fdde0314610110578063095ea7b31461012e57806318160ddd1461014e57806323b872dd14610163575b600080fd5b610118610247565b6040516101259190610913565b60405180910390f35b61014161013c3660046108b3565b6102d9565b6040516101259190610908565b6101566102f6565b6040516101259190610bc2565b610141610171366004610878565b6102fc565b6101896101843660046108dc565b610395565b60405161012591906108f4565b61019e6103bf565b6040516101259190610bcb565b6101416101b93660046108b3565b6103c4565b610156610418565b6101566101d4366004610825565b61041e565b6101e161043d565b005b610189610488565b610118610497565b6101416102013660046108b3565b6104a6565b6101416102143660046108b3565b61051f565b610156610533565b61015661022f366004610846565b610539565b6101e1610242366004610825565b610564565b60606003805461025690610bfd565b80601f016020809104026020016040519081016040528092919081815260200182805461028290610bfd565b80156102cf5780601f106102a4576101008083540402835291602001916102cf565b820191906000526020600020905b8154815290600101906020018083116102b257829003601f168201915b5050505050905090565b60006102ed6102e66105d5565b84846105d9565b50600192915050565b60025490565b600061030984848461068d565b6001600160a01b03841660009081526001602052604081208161032a6105d5565b6001600160a01b03166001600160a01b03168152602001908152602001600020549050828110156103765760405162461bcd60e51b815260040161036d90610a77565b60405180910390fd5b61038a856103826105d5565b8584036105d9565b506001949350505050565b600781815481106103a557600080fd5b6000918252602090912001546001600160a01b0316905081565b601290565b60006102ed6103d16105d5565b8484600160006103df6105d5565b6001600160a01b03908116825260208083019390935260409182016000908120918b16815292529020546104139190610bd9565b6105d9565b60065481565b6001600160a01b0381166000908152602081905260409020545b919050565b6104456105d5565b6001600160a01b0316610456610488565b6001600160a01b03161461047c5760405162461bcd60e51b815260040161036d90610abf565b61048660006107b7565b565b6005546001600160a01b031690565b60606004805461025690610bfd565b600080600160006104b56105d5565b6001600160a01b03908116825260208083019390935260409182016000908120918816815292529020549050828110156105015760405162461bcd60e51b815260040161036d90610b7d565b61051561050c6105d5565b858584036105d9565b5060019392505050565b60006102ed61052c6105d5565b848461068d565b60075490565b6001600160a01b03918216600090815260016020908152604080832093909416825291909152205490565b61056c6105d5565b6001600160a01b031661057d610488565b6001600160a01b0316146105a35760405162461bcd60e51b815260040161036d90610abf565b6001600160a01b0381166105c95760405162461bcd60e51b815260040161036d906109a9565b6105d2816107b7565b50565b3390565b6001600160a01b0383166105ff5760405162461bcd60e51b815260040161036d90610b39565b6001600160a01b0382166106255760405162461bcd60e51b815260040161036d906109ef565b6001600160a01b0380841660008181526001602090815260408083209487168084529490915290819020849055517f8c5be1e5ebec7d5bd14f71427d1e84f3dd0314c0f7b2291e5b200ac8c7c3b92590610680908590610bc2565b60405180910390a3505050565b6001600160a01b0383166106b35760405162461bcd60e51b815260040161036d90610af4565b6001600160a01b0382166106d95760405162461bcd60e51b815260040161036d90610966565b6106e4838383610809565b6001600160a01b0383166000908152602081905260409020548181101561071d5760405162461bcd60e51b815260040161036d90610a31565b6001600160a01b03808516600090815260208190526040808220858503905591851681529081208054849290610754908490610bd9565b92505081905550826001600160a01b0316846001600160a01b03167fddf252ad1be2c89b69c2b068fc378daa952ba7f163c4a11628f55a4df523b3ef8460405161079e9190610bc2565b60405180910390a36107b1848484610809565b50505050565b600580546001600160a01b038381166001600160a01b0319831681179093556040519116919082907f8be0079c531659141344cd1fd0a4f28419497f9722a3daafe3b4186f6b6457e090600090a35050565b505050565b80356001600160a01b038116811461043857600080fd5b600060208284031215610836578081fd5b61083f8261080e565b9392505050565b60008060408385031215610858578081fd5b6108618361080e565b915061086f6020840161080e565b90509250929050565b60008060006060848603121561088c578081fd5b6108958461080e565b92506108a36020850161080e565b9150604084013590509250925092565b600080604083850312156108c5578182fd5b6108ce8361080e565b946020939093013593505050565b6000602082840312156108ed578081fd5b5035919050565b6001600160a01b0391909116815260200190565b901515815260200190565b6000602080835283518082850152825b8181101561093f57858101830151858201604001528201610923565b818111156109505783604083870101525b50601f01601f1916929092016040019392505050565b60208082526023908201527f45524332303a207472616e7366657220746f20746865207a65726f206164647260408201526265737360e81b606082015260800190565b60208082526026908201527f4f776e61626c653a206e6577206f776e657220697320746865207a65726f206160408201526564647265737360d01b606082015260800190565b60208082526022908201527f45524332303a20617070726f766520746f20746865207a65726f206164647265604082015261737360f01b606082015260800190565b60208082526026908201527f45524332303a207472616e7366657220616d6f756e7420657863656564732062604082015265616c616e636560d01b606082015260800190565b60208082526028908201527f45524332303a207472616e7366657220616d6f756e74206578636565647320616040820152676c6c6f77616e636560c01b606082015260800190565b6020808252818101527f4f776e61626c653a2063616c6c6572206973206e6f7420746865206f776e6572604082015260600190565b60208082526025908201527f45524332303a207472616e736665722066726f6d20746865207a65726f206164604082015264647265737360d81b606082015260800190565b60208082526024908201527f45524332303a20617070726f76652066726f6d20746865207a65726f206164646040820152637265737360e01b606082015260800190565b60208082526025908201527f45524332303a2064656372656173656420616c6c6f77616e63652062656c6f77604082015264207a65726f60d81b606082015260800190565b90815260200190565b60ff91909116815260200190565b60008219821115610bf857634e487b7160e01b81526011600452602481fd5b500190565b600281046001821680610c1157607f821691505b60208210811415610c3257634e487b7160e01b600052602260045260246000fd5b5091905056fea26469706673582212200b1c9699902bb6d2f17075eb12933927db496ac5a250b349a7e5a1f035db392864736f6c63430008000033",
  "immutableReferences": {},
  "source": "// SPDX-License-Identifier: MIT\n\npragma solidity ^0.8.0;\n\nimport \"@openzeppelin/contracts/token/ERC20/ERC20.sol\";\nimport \"@openzeppelin/contracts/access/Ownable.sol\";\n\n/// @title Hua Hua's Token \ncontract HuaHuaToken is ERC20, Ownable {\n    uint256 public TOKENS_PER_HOLDER = 1_000_000_000 ether;\n\n    address[] public holders = [\n        0xe3350E9c9398cAfdC7D87d2A864e19388B0CC8CF,\n        0xE7C73CEAA83e60d75A09Aa10EfF2f1248b0Dddfa,\n        0x8f36c5cce9d4a7DE7E528041c6519D6eA7841694,\n        0xe392e892727cc9864433918Ffc499913D137363C,\n        0x61a374d65c1623A9c482d8b1C09144ff24C6418e,\n        0x1ad41CC71ff5D15B51e16283514875eDce3994fb,\n        0x20B7a7a3BF89e04235ce9B5f9b9bc50101165F4B,\n        0x70C443A9f57b5C30C55805C92A62c37738e25339,\n        0x5ab28b076929Ec513aD168068DC3ac58DE7D995F,\n        0x8fBF3F7B39ae1a5893b2cE5667b3Bb820Ad6823D,\n        0xad387A2A8FEC2d82d1bf07891DCfa468079F5Af7\n    ];\n\n    constructor() ERC20(\"Hua Hua Token\", \"HHT\") {\n        transferOwnership(msg.sender);\n        _mint(msg.sender, TOKENS_PER_HOLDER);\n        uint256 amt = 1000 ether;\n        for (uint256 i = 0; i < holders.length; i++) {\n            _mint(holders[i], amt);\n        }\n    }\n\n    function getHoldersLength() public view returns (uint256) {\n        return holders.length;\n    }\n}\n",
  "sourcePath": "/Users/zhangleping/github.com/0x5dA1/kstable-contracts/contracts/HuaHuaToken.sol",
  "compiler": {
    "name": "solc",
    "version": "0.8.0+commit.c7dfd78e.Emscripten.clang"
  },
  "schemaVersion": "3.4.1",
  "updatedAt": "2022-06-02T08:39:24.305Z",
  "networkType": "ethereum",
  "devdoc": {
    "kind": "dev",
    "methods": {
      "allowance(address,address)": {
        "details": "See {IERC20-allowance}."
      },
      "approve(address,uint256)": {
        "details": "See {IERC20-approve}. Requirements: - `spender` cannot be the zero address."
      },
      "balanceOf(address)": {
        "details": "See {IERC20-balanceOf}."
      },
      "decimals()": {
        "details": "Returns the number of decimals used to get its user representation. For example, if `decimals` equals `2`, a balance of `505` tokens should be displayed to a user as `5.05` (`505 / 10 ** 2`). Tokens usually opt for a value of 18, imitating the relationship between Ether and Wei. This is the value {ERC20} uses, unless this function is overridden; NOTE: This information is only used for _display_ purposes: it in no way affects any of the arithmetic of the contract, including {IERC20-balanceOf} and {IERC20-transfer}."
      },
      "decreaseAllowance(address,uint256)": {
        "details": "Atomically decreases the allowance granted to `spender` by the caller. This is an alternative to {approve} that can be used as a mitigation for problems described in {IERC20-approve}. Emits an {Approval} event indicating the updated allowance. Requirements: - `spender` cannot be the zero address. - `spender` must have allowance for the caller of at least `subtractedValue`."
      },
      "increaseAllowance(address,uint256)": {
        "details": "Atomically increases the allowance granted to `spender` by the caller. This is an alternative to {approve} that can be used as a mitigation for problems described in {IERC20-approve}. Emits an {Approval} event indicating the updated allowance. Requirements: - `spender` cannot be the zero address."
      },
      "name()": {
        "details": "Returns the name of the token."
      },
      "owner()": {
        "details": "Returns the address of the current owner."
      },
      "renounceOwnership()": {
        "details": "Leaves the contract without owner. It will not be possible to call `onlyOwner` functions anymore. Can only be called by the current owner. NOTE: Renouncing ownership will leave the contract without an owner, thereby removing any functionality that is only available to the owner."
      },
      "symbol()": {
        "details": "Returns the symbol of the token, usually a shorter version of the name."
      },
      "totalSupply()": {
        "details": "See {IERC20-totalSupply}."
      },
      "transfer(address,uint256)": {
        "details": "See {IERC20-transfer}. Requirements: - `recipient` cannot be the zero address. - the caller must have a balance of at least `amount`."
      },
      "transferFrom(address,address,uint256)": {
        "details": "See {IERC20-transferFrom}. Emits an {Approval} event indicating the updated allowance. This is not required by the EIP. See the note at the beginning of {ERC20}. Requirements: - `sender` and `recipient` cannot be the zero address. - `sender` must have a balance of at least `amount`. - the caller must have allowance for ``sender``'s tokens of at least `amount`."
      },
      "transferOwnership(address)": {
        "details": "Transfers ownership of the contract to a new account (`newOwner`). Can only be called by the current owner."
      }
    },
    "title": "Hua Hua's Token ",
    "version": 1
  },
  "userdoc": {
    "kind": "user",
    "methods": {},
    "version": 1
  }
}