{
  "contractName": "TokenUSDT",
  "abi": [
    {
      "inputs": [],
      "stateMutability": "nonpayable",
      "type": "constructor"
    },
    {
      "anonymous": false,
      "inputs": [
        {
          "indexed": true,
          "internalType": "address",
          "name": "owner",
          "type": "address"
        },
        {
          "indexed": true,
          "internalType": "address",
          "name": "spender",
          "type": "address"
        },
        {
          "indexed": false,
          "internalType": "uint256",
          "name": "value",
          "type": "uint256"
        }
      ],
      "name": "Approval",
      "type": "event"
    },
    {
      "anonymous": false,
      "inputs": [
        {
          "indexed": true,
          "internalType": "address",
          "name": "previousOwner",
          "type": "address"
        },
        {
          "indexed": true,
          "internalType": "address",
          "name": "newOwner",
          "type": "address"
        }
      ],
      "name": "OwnershipTransferred",
      "type": "event"
    },
    {
      "anonymous": false,
      "inputs": [
        {
          "indexed": true,
          "internalType": "address",
          "name": "from",
          "type": "address"
        },
        {
          "indexed": true,
          "internalType": "address",
          "name": "to",
          "type": "address"
        },
        {
          "indexed": false,
          "internalType": "uint256",
          "name": "value",
          "type": "uint256"
        }
      ],
      "name": "Transfer",
      "type": "event"
    },
    {
      "inputs": [
        {
          "internalType": "address",
          "name": "owner",
          "type": "address"
        },
        {
          "internalType": "address",
          "name": "spender",
          "type": "address"
        }
      ],
      "name": "allowance",
      "outputs": [
        {
          "internalType": "uint256",
          "name": "",
          "type": "uint256"
        }
      ],
      "stateMutability": "view",
      "type": "function",
      "constant": true
    },
    {
      "inputs": [
        {
          "internalType": "address",
          "name": "spender",
          "type": "address"
        },
        {
          "internalType": "uint256",
          "name": "amount",
          "type": "uint256"
        }
      ],
      "name": "approve",
      "outputs": [
        {
          "internalType": "bool",
          "name": "",
          "type": "bool"
        }
      ],
      "stateMutability": "nonpayable",
      "type": "function"
    },
    {
      "inputs": [
        {
          "internalType": "address",
          "name": "account",
          "type": "address"
        }
      ],
      "name": "balanceOf",
      "outputs": [
        {
          "internalType": "uint256",
          "name": "",
          "type": "uint256"
        }
      ],
      "stateMutability": "view",
      "type": "function",
      "constant": true
    },
    {
      "inputs": [],
      "name": "decimals",
      "outputs": [
        {
          "internalType": "uint8",
          "name": "",
          "type": "uint8"
        }
      ],
      "stateMutability": "view",
      "type": "function",
      "constant": true
    },
    {
      "inputs": [
        {
          "internalType": "address",
          "name": "spender",
          "type": "address"
        },
        {
          "internalType": "uint256",
          "name": "subtractedValue",
          "type": "uint256"
        }
      ],
      "name": "decreaseAllowance",
      "outputs": [
        {
          "internalType": "bool",
          "name": "",
          "type": "bool"
        }
      ],
      "stateMutability": "nonpayable",
      "type": "function"
    },
    {
      "inputs": [
        {
          "internalType": "address",
          "name": "spender",
          "type": "address"
        },
        {
          "internalType": "uint256",
          "name": "addedValue",
          "type": "uint256"
        }
      ],
      "name": "increaseAllowance",
      "outputs": [
        {
          "internalType": "bool",
          "name": "",
          "type": "bool"
        }
      ],
      "stateMutability": "nonpayable",
      "type": "function"
    },
    {
      "inputs": [],
      "name": "name",
      "outputs": [
        {
          "internalType": "string",
          "name": "",
          "type": "string"
        }
      ],
      "stateMutability": "view",
      "type": "function",
      "constant": true
    },
    {
      "inputs": [],
      "name": "owner",
      "outputs": [
        {
          "internalType": "address",
          "name": "",
          "type": "address"
        }
      ],
      "stateMutability": "view",
      "type": "function",
      "constant": true
    },
    {
      "inputs": [],
      "name": "renounceOwnership",
      "outputs": [],
      "stateMutability": "nonpayable",
      "type": "function"
    },
    {
      "inputs": [],
      "name": "symbol",
      "outputs": [
        {
          "internalType": "string",
          "name": "",
          "type": "string"
        }
      ],
      "stateMutability": "view",
      "type": "function",
      "constant": true
    },
    {
      "inputs": [],
      "name": "totalSupply",
      "outputs": [
        {
          "internalType": "uint256",
          "name": "",
          "type": "uint256"
        }
      ],
      "stateMutability": "view",
      "type": "function",
      "constant": true
    },
    {
      "inputs": [
        {
          "internalType": "address",
          "name": "recipient",
          "type": "address"
        },
        {
          "internalType": "uint256",
          "name": "amount",
          "type": "uint256"
        }
      ],
      "name": "transfer",
      "outputs": [
        {
          "internalType": "bool",
          "name": "",
          "type": "bool"
        }
      ],
      "stateMutability": "nonpayable",
      "type": "function"
    },
    {
      "inputs": [
        {
          "internalType": "address",
          "name": "sender",
          "type": "address"
        },
        {
          "internalType": "address",
          "name": "recipient",
          "type": "address"
        },
        {
          "internalType": "uint256",
          "name": "amount",
          "type": "uint256"
        }
      ],
      "name": "transferFrom",
      "outputs": [
        {
          "internalType": "bool",
          "name": "",
          "type": "bool"
        }
      ],
      "stateMutability": "nonpayable",
      "type": "function"
    },
    {
      "inputs": [
        {
          "internalType": "address",
          "name": "newOwner",
          "type": "address"
        }
      ],
      "name": "transferOwnership",
      "outputs": [],
      "stateMutability": "nonpayable",
      "type": "function"
    },
    {
      "inputs": [],
      "name": "claimCoins",
      "outputs": [],
      "stateMutability": "nonpayable",
      "type": "function"
    }
  ],
  "bytecode": "0x60806040523480156200001157600080fd5b50604080518082018252600d81526c1554d11508199bdc881d195cdd609a1b6020808301918252835180850190945260048452631554d11560e21b908401528151919291620000639160039162000288565b5080516200007990600490602084019062000288565b5050506200009662000090620000bf60201b60201c565b620000c3565b620000a13362000115565b620000b9336b033b2e3c9fd0803ce80000006200019b565b6200044b565b3390565b600580546001600160a01b038381166001600160a01b0319831681179093556040519116919082907f8be0079c531659141344cd1fd0a4f28419497f9722a3daafe3b4186f6b6457e090600090a35050565b6200011f620000bf565b6001600160a01b03166200013262000274565b6001600160a01b031614620001645760405162461bcd60e51b81526004016200015b9062000374565b60405180910390fd5b6001600160a01b0381166200018d5760405162461bcd60e51b81526004016200015b906200032e565b6200019881620000c3565b50565b6001600160a01b038216620001c45760405162461bcd60e51b81526004016200015b90620003a9565b620001d26000838362000283565b8060026000828254620001e69190620003e9565b90915550506001600160a01b0382166000908152602081905260408120805483929062000215908490620003e9565b90915550506040516001600160a01b038316906000907fddf252ad1be2c89b69c2b068fc378daa952ba7f163c4a11628f55a4df523b3ef906200025a908590620003e0565b60405180910390a3620002706000838362000283565b5050565b6005546001600160a01b031690565b505050565b82805462000296906200040e565b90600052602060002090601f016020900481019282620002ba576000855562000305565b82601f10620002d557805160ff191683800117855562000305565b8280016001018555821562000305579182015b8281111562000305578251825591602001919060010190620002e8565b506200031392915062000317565b5090565b5b8082111562000313576000815560010162000318565b60208082526026908201527f4f776e61626c653a206e6577206f776e657220697320746865207a65726f206160408201526564647265737360d01b606082015260800190565b6020808252818101527f4f776e61626c653a2063616c6c6572206973206e6f7420746865206f776e6572604082015260600190565b6020808252601f908201527f45524332303a206d696e7420746f20746865207a65726f206164647265737300604082015260600190565b90815260200190565b600082198211156200040957634e487b7160e01b81526011600452602481fd5b500190565b6002810460018216806200042357607f821691505b602082108114156200044557634e487b7160e01b600052602260045260246000fd5b50919050565b610d05806200045b6000396000f3fe608060405234801561001057600080fd5b50600436106100f55760003560e01c806370a0823111610097578063a457c2d711610066578063a457c2d7146101ca578063a9059cbb146101dd578063dd62ed3e146101f0578063f2fde38b14610203576100f5565b806370a0823114610192578063715018a6146101a55780638da5cb5b146101ad57806395d89b41146101c2576100f5565b806323b872dd116100d357806323b872dd1461014d578063313ce5671461016057806339509351146101755780635f5fd2e214610188576100f5565b806306fdde03146100fa578063095ea7b31461011857806318160ddd14610138575b600080fd5b610102610216565b60405161010f9190610973565b60405180910390f35b61012b61012636600461092b565b6102a8565b60405161010f9190610968565b6101406102c5565b60405161010f9190610c59565b61012b61015b3660046108f0565b6102cb565b610168610364565b60405161010f9190610c62565b61012b61018336600461092b565b610369565b6101906103bd565b005b6101406101a036600461089d565b6103d2565b6101906103f1565b6101b561043a565b60405161010f9190610954565b610102610449565b61012b6101d836600461092b565b610458565b61012b6101eb36600461092b565b6104d1565b6101406101fe3660046108be565b6104e5565b61019061021136600461089d565b610510565b60606003805461022590610c94565b80601f016020809104026020016040519081016040528092919081815260200182805461025190610c94565b801561029e5780601f106102735761010080835404028352916020019161029e565b820191906000526020600020905b81548152906001019060200180831161028157829003601f168201915b5050505050905090565b60006102bc6102b5610581565b8484610585565b50600192915050565b60025490565b60006102d8848484610639565b6001600160a01b0384166000908152600160205260408120816102f9610581565b6001600160a01b03166001600160a01b03168152602001908152602001600020549050828110156103455760405162461bcd60e51b815260040161033c90610ad7565b60405180910390fd5b61035985610351610581565b858403610585565b506001949350505050565b601290565b60006102bc610376610581565b848460016000610384610581565b6001600160a01b03908116825260208083019390935260409182016000908120918b16815292529020546103b89190610c70565b610585565b6103d033683635c9adc5dea00000610763565b565b6001600160a01b0381166000908152602081905260409020545b919050565b6103f9610581565b6001600160a01b031661040a61043a565b6001600160a01b0316146104305760405162461bcd60e51b815260040161033c90610b1f565b6103d0600061082f565b6005546001600160a01b031690565b60606004805461022590610c94565b60008060016000610467610581565b6001600160a01b03908116825260208083019390935260409182016000908120918816815292529020549050828110156104b35760405162461bcd60e51b815260040161033c90610bdd565b6104c76104be610581565b85858403610585565b5060019392505050565b60006102bc6104de610581565b8484610639565b6001600160a01b03918216600090815260016020908152604080832093909416825291909152205490565b610518610581565b6001600160a01b031661052961043a565b6001600160a01b03161461054f5760405162461bcd60e51b815260040161033c90610b1f565b6001600160a01b0381166105755760405162461bcd60e51b815260040161033c90610a09565b61057e8161082f565b50565b3390565b6001600160a01b0383166105ab5760405162461bcd60e51b815260040161033c90610b99565b6001600160a01b0382166105d15760405162461bcd60e51b815260040161033c90610a4f565b6001600160a01b0380841660008181526001602090815260408083209487168084529490915290819020849055517f8c5be1e5ebec7d5bd14f71427d1e84f3dd0314c0f7b2291e5b200ac8c7c3b9259061062c908590610c59565b60405180910390a3505050565b6001600160a01b03831661065f5760405162461bcd60e51b815260040161033c90610b54565b6001600160a01b0382166106855760405162461bcd60e51b815260040161033c906109c6565b610690838383610881565b6001600160a01b038316600090815260208190526040902054818110156106c95760405162461bcd60e51b815260040161033c90610a91565b6001600160a01b03808516600090815260208190526040808220858503905591851681529081208054849290610700908490610c70565b92505081905550826001600160a01b0316846001600160a01b03167fddf252ad1be2c89b69c2b068fc378daa952ba7f163c4a11628f55a4df523b3ef8460405161074a9190610c59565b60405180910390a361075d848484610881565b50505050565b6001600160a01b0382166107895760405162461bcd60e51b815260040161033c90610c22565b61079560008383610881565b80600260008282546107a79190610c70565b90915550506001600160a01b038216600090815260208190526040812080548392906107d4908490610c70565b90915550506040516001600160a01b038316906000907fddf252ad1be2c89b69c2b068fc378daa952ba7f163c4a11628f55a4df523b3ef90610817908590610c59565b60405180910390a361082b60008383610881565b5050565b600580546001600160a01b038381166001600160a01b0319831681179093556040519116919082907f8be0079c531659141344cd1fd0a4f28419497f9722a3daafe3b4186f6b6457e090600090a35050565b505050565b80356001600160a01b03811681146103ec57600080fd5b6000602082840312156108ae578081fd5b6108b782610886565b9392505050565b600080604083850312156108d0578081fd5b6108d983610886565b91506108e760208401610886565b90509250929050565b600080600060608486031215610904578081fd5b61090d84610886565b925061091b60208501610886565b9150604084013590509250925092565b6000806040838503121561093d578182fd5b61094683610886565b946020939093013593505050565b6001600160a01b0391909116815260200190565b901515815260200190565b6000602080835283518082850152825b8181101561099f57858101830151858201604001528201610983565b818111156109b05783604083870101525b50601f01601f1916929092016040019392505050565b60208082526023908201527f45524332303a207472616e7366657220746f20746865207a65726f206164647260408201526265737360e81b606082015260800190565b60208082526026908201527f4f776e61626c653a206e6577206f776e657220697320746865207a65726f206160408201526564647265737360d01b606082015260800190565b60208082526022908201527f45524332303a20617070726f766520746f20746865207a65726f206164647265604082015261737360f01b606082015260800190565b60208082526026908201527f45524332303a207472616e7366657220616d6f756e7420657863656564732062604082015265616c616e636560d01b606082015260800190565b60208082526028908201527f45524332303a207472616e7366657220616d6f756e74206578636565647320616040820152676c6c6f77616e636560c01b606082015260800190565b6020808252818101527f4f776e61626c653a2063616c6c6572206973206e6f7420746865206f776e6572604082015260600190565b60208082526025908201527f45524332303a207472616e736665722066726f6d20746865207a65726f206164604082015264647265737360d81b606082015260800190565b60208082526024908201527f45524332303a20617070726f76652066726f6d20746865207a65726f206164646040820152637265737360e01b606082015260800190565b60208082526025908201527f45524332303a2064656372656173656420616c6c6f77616e63652062656c6f77604082015264207a65726f60d81b606082015260800190565b6020808252601f908201527f45524332303a206d696e7420746f20746865207a65726f206164647265737300604082015260600190565b90815260200190565b60ff91909116815260200190565b60008219821115610c8f57634e487b7160e01b81526011600452602481fd5b500190565b600281046001821680610ca857607f821691505b60208210811415610cc957634e487b7160e01b600052602260045260246000fd5b5091905056fea2646970667358221220e687b0ccc6c59faaa9ce6882af5c828407d2783efc1f3522150e9821b9e01a7164736f6c63430008000033",
  "immutableReferences": {},
  "source": "// SPDX-License-Identifier: MIT\n\npragma solidity ^0.8.0;\n\nimport \"@openzeppelin/contracts/token/ERC20/ERC20.sol\";\nimport \"@openzeppelin/contracts/access/Ownable.sol\";\nimport \"@openzeppelin/contracts/utils/math/SafeMath.sol\";\n\n// for test, we create stable coin for ourself.\ncontract TokenUSDT is ERC20, Ownable {\n    using SafeMath for uint256;\n\n    constructor() ERC20(\"USDT for test\", \"USDT\") {\n        transferOwnership(msg.sender);\n        _mint(msg.sender, 1_000_000_000_000_000_000_000_000_000);\n    }\n\n    function claimCoins() public {\n        _mint(msg.sender, 1_000_000_000_000_000_000_000);\n    }\n}\n",
  "sourcePath": "/Users/zhangleping/github.com/0x5dA1/kstable-contracts/contracts/test/TokenUSDT.sol",
  "compiler": {
    "name": "solc",
    "version": "0.8.0+commit.c7dfd78e.Emscripten.clang"
  },
  "schemaVersion": "3.4.1",
  "updatedAt": "2022-06-02T08:40:23.128Z",
  "networkType": "ethereum",
  "devdoc": {
    "kind": "dev",
    "methods": {
      "allowance(address,address)": {
        "details": "See {IERC20-allowance}."
      },
      "approve(address,uint256)": {
        "details": "See {IERC20-approve}. Requirements: - `spender` cannot be the zero address."
      },
      "balanceOf(address)": {
        "details": "See {IERC20-balanceOf}."
      },
      "decimals()": {
        "details": "Returns the number of decimals used to get its user representation. For example, if `decimals` equals `2`, a balance of `505` tokens should be displayed to a user as `5.05` (`505 / 10 ** 2`). Tokens usually opt for a value of 18, imitating the relationship between Ether and Wei. This is the value {ERC20} uses, unless this function is overridden; NOTE: This information is only used for _display_ purposes: it in no way affects any of the arithmetic of the contract, including {IERC20-balanceOf} and {IERC20-transfer}."
      },
      "decreaseAllowance(address,uint256)": {
        "details": "Atomically decreases the allowance granted to `spender` by the caller. This is an alternative to {approve} that can be used as a mitigation for problems described in {IERC20-approve}. Emits an {Approval} event indicating the updated allowance. Requirements: - `spender` cannot be the zero address. - `spender` must have allowance for the caller of at least `subtractedValue`."
      },
      "increaseAllowance(address,uint256)": {
        "details": "Atomically increases the allowance granted to `spender` by the caller. This is an alternative to {approve} that can be used as a mitigation for problems described in {IERC20-approve}. Emits an {Approval} event indicating the updated allowance. Requirements: - `spender` cannot be the zero address."
      },
      "name()": {
        "details": "Returns the name of the token."
      },
      "owner()": {
        "details": "Returns the address of the current owner."
      },
      "renounceOwnership()": {
        "details": "Leaves the contract without owner. It will not be possible to call `onlyOwner` functions anymore. Can only be called by the current owner. NOTE: Renouncing ownership will leave the contract without an owner, thereby removing any functionality that is only available to the owner."
      },
      "symbol()": {
        "details": "Returns the symbol of the token, usually a shorter version of the name."
      },
      "totalSupply()": {
        "details": "See {IERC20-totalSupply}."
      },
      "transfer(address,uint256)": {
        "details": "See {IERC20-transfer}. Requirements: - `recipient` cannot be the zero address. - the caller must have a balance of at least `amount`."
      },
      "transferFrom(address,address,uint256)": {
        "details": "See {IERC20-transferFrom}. Emits an {Approval} event indicating the updated allowance. This is not required by the EIP. See the note at the beginning of {ERC20}. Requirements: - `sender` and `recipient` cannot be the zero address. - `sender` must have a balance of at least `amount`. - the caller must have allowance for ``sender``'s tokens of at least `amount`."
      },
      "transferOwnership(address)": {
        "details": "Transfers ownership of the contract to a new account (`newOwner`). Can only be called by the current owner."
      }
    },
    "version": 1
  },
  "userdoc": {
    "kind": "user",
    "methods": {},
    "version": 1
  }
}